:020000040800F2
:1000000000110020C901000863080008410500082C
:1000100061080008C502000819110008000000006E
:10002000000000000000000000000000C5090008FA
:10003000C702000800000000DD080008990A000857
:10004000E3010008E3010008E3010008E301000800
:10005000E3010008E3010008E3010008F9020008D9
:1000600049030008E3010008E3010008E301000878
:10007000E3010008E3010008E3010008E3010008D0
:10008000E3010008E3010008E3010008E3010008C0
:10009000E3010008E3010008E3010008E3010008B0
:1000A000E3010008E3010008E3010008E3010008A0
:1000B000790B0008590C0008A90C0008E30100089E
:1000C000E3010008E3010008E3010008E301000880
:1000D000E30100085D0F0008E3010008E3010008E8
:1000E000C9020008E3010008E301000800F002F87B
:1000F00000F05AF80AA090E8000C82448344AAF168
:100100000107DA4501D100F04FF8AFF2090EBAE865
:100110000F0013F0010F18BFFB1A43F0010318473B
:10012000C4150000E41500000A444FF0000C10F85C
:10013000013B13F0070408BF10F8014B1D1108BF65
:1001400010F8015B641E05D010F8016B641E01F805
:10015000016BF9D113F0080F1EBF10F8014BAD1C55
:100160000C1B09D16D1E58BF01F801CBFAD505E073
:1001700014F8016B01F8016B6D1EF9D59142D6D3CD
:10018000704700000023002400250026103A28BFF5
:1001900078C1FBD8520728BF30C148BF0B607047F9
:1001A0001FB51FBD10B510BD00F033F81146FFF7A5
:1001B000F7FF01F0DBF800F051F803B4FFF7F2FFAE
:1001C00003BC00F0AAFF0000094880470948004727
:1001D000FEE7FEE7FEE7FEE7FEE7FEE7FEE7FEE7F7
:1001E000FEE7FEE704480549054A064B7047000054
:1001F0009D0A0008ED000008000B002000110020FF
:10020000000D0020000D00207047704770477047B8
:100210007047754600F02CF8AE4605006946534617
:1002200020F00700854618B020B5FFF7DBFFBDE8DA
:1002300020404FF000064FF000074FF000084FF04D
:10024000000B21F00701AC46ACE8C009ACE8C009DE
:10025000ACE8C009ACE8C0098D46704710B504464B
:10026000AFF300802046BDE81040FFF7A6BF0000B6
:1002700000487047A00A00201FB50121480500F082
:100280002FFB4FF48060ADF80A000001ADF80C00C0
:100290000A4800904BF6FF70ADF806000020ADF85C
:1002A0000400ADF80800064C6946204600F092F9BB
:1002B0000121204600F051F91FBD0000A086010079
:1002C00000540040FEE7704710B54FF4005420463C
:1002D00000F062F801280AD1204600F057F8012109
:1002E000034800F0A6FD034801214170C17010BD14
:1002F000000800403E00002010B50A2000F02CFF4E
:1003000002210E4800F011F9012815D1022000F059
:1003100043F8012810D1022000F038F808490022E3
:10032000CA700878401CC0B20870064C01232370C4
:10033000401CC72800D90A7010BD00000010014001
:100340003E0000201100002010B504210B4800F0F1
:10035000ECF8012811D1042000F01EF801280CD17E
:10036000042000F013F80121054800F062FD054962
:100370000020887004490120087010BD0008014069
:10038000000800403E0000200000002001490860F5
:10039000704700001404014001460020054A12681D
:1003A0000A40044B14331B680B4202D0002A00D0D1
:1003B000012070470004014030B51B4A8379016871
:1003C000002B2AD013688B431360111D0B6804683F
:1003D000A3430B60017911440B68046823430B604D
:1003E000114C08342168036899432160231D196862
:1003F0000568A94319604179102905D011440A689C
:10040000006802430A6030BD216802681143216020
:10041000196800680143196030BD00791044026812
:100420008A43026030BD00000004014030B5002264
:1004300000238B54521CD2B2082AFAD300220A237A
:1004400009E0B0FBF3F403FB14051446521CD2B2CE
:100450000D55B0FBF3F00028F3D130BD10B58A077D
:10046000120F0F23934021F00304054921448C68A7
:100470009C438C608B68904003438B6010BD0000F0
:10048000000001402DE9F0410022CC7804F00F0378
:10049000E40601D58C7823430C784FF00F0714F055
:1004A000FF0F4FF0010C1CD005680CFA02F40E8807
:1004B0002640A64211D1960007FA06F825EA08055B
:1004C00003FA06F848EA0505CE78282E02D0482E11
:1004D00002D002E0446100E00461521C082AE4D327
:1004E00005600A88FF2A1ED94568002202F1080625
:1004F0000CFA06F40E882640A64210D1960007FAA0
:1005000006F825EA080503FA06F848EA0505CE7854
:10051000282E00D14461CE78482E00D10461521CAF
:10052000082AE3D34560BDE8F081024600209268C6
:100530000A4200D001207047416170470161704755
:10054000FEE7034600209A8A1B8B1B041A4322F005
:100550007F42914300D101207047002904D00188D7
:1005600041F0010101807047018821F00101018003
:100570007047002904D0018841F4807101807047E0
:10058000018821F4807101807047002904D001881E
:1005900041F4007101807047018821F400710180ED
:1005A00070470CB50246002000920A0F019221F01C
:1005B0007F41019A002A03D0009A1432009203E08E
:1005C000090C009A18320092009A12680A4200D070
:1005D00001200CBD70B586B004460D46A08820F001
:1005E0003F0601A800F098F903982849B0FBF1F103
:1005F00089B20E43A680228822F001022280244B79
:100600002A689A4209D85200B0FBF2F080B204285E
:1006100000D20420491C218423E0EB88A3F53F4647
:10062000FF3E0BD002EBC20303EB0212B0FBF2F071
:1006300080B240F48040020506D007E002EB42029F
:10064000B0FBF2F080B2F6E740F0010040F4004069
:100650004FF4967251434FF47A72B1FBF2F1491C98
:100660002184A083208840F00100208020884FF65C
:10067000F5310840A9886A89114301432180A8897E
:1006800029890843208106B070BD000040420F0058
:10069000A0860100002A02D041F0010101E001F032
:1006A000FE01018270470182704700002DE9F0478A
:1006B00081460D4614461E46304F7E604FF4003A88
:1006C000DFF8BC8004E07868401E7860401C0DD0E4
:1006D00051464046FFF765FF0028F4D1012140460E
:1006E000FFF747FF7E60DFF89CA007E00120BDE830
:1006F000F0877868401E7860401C0ED05146404616
:10070000FFF71FFF0028F4D0002249464046FFF7BC
:10071000C1FF7E60DFF8709006E00120E7E77868AF
:10072000401E7860401C0AD049464046FFF709FF4A
:100730000028F4D0DFF8509009F1020913E00120FD
:10074000D5E729784046FFF7AEFF6D1C7E6004E0D8
:100750007868401E7860401C0ED049464046FFF73E
:10076000F0FE0028F4D0641EA4B2EAD20121404673
:10077000FFF70BFF0020BAE70120B8E74400002094
:10078000005400400100030082000700F8B5012179
:100790001C2000F0B3F80220ADF8000010208DF806
:1007A000030003248DF802401D4E69463046FFF7D2
:1007B00069FE02213046FFF7C1FE42F20200ADF8A9
:1007C000000048258DF803508DF802406946154811
:1007D000FFF758FE0420ADF800008DF803508DF8A7
:1007E0000240114D69462846FFF74CFE0120ADF846
:1007F000000028208DF803008DF802406946284645
:10080000FFF740FEC020ADF800008DF802401C202C
:100810008DF8030069463046FFF734FEF8BD00004E
:10082000000C0140001001400008014008B5012102
:10083000042000F063F81020ADF800008DF80300EC
:1008400003208DF8020069460348FFF71BFE0349A9
:100850000020086008BD000000080140900121420E
:10086000FEE7704770B50F23C27801260178002A91
:100870001ED0144A126802F4E062C2F5E062120A65
:10088000C2F10404D3404578A54082781A402A4337
:10089000120101F1E02181F80024007800F01F012D
:1008A0008E404009800000F1E020C0F8006170BD7A
:1008B00001F01F0086404809800000F1E020C0F8E8
:1008C000806170BD0CED00E00249084302490860F8
:1008D000704700000000FA050CED00E070470000D2
:1008E000054A002903D0D1690143D1617047D1691C
:1008F0008143D1617047000000100240054A002981
:1009000003D091690143916170479169814391617D
:10091000704700000010024010B5264A516801F0EF
:100920000C01254B002927D0042927D0082927D0DE
:100930000360516801F0F0010909204B5C5C01681B
:10094000E1404160546804F4E064240A1C5D21FA2B
:1009500004F48460546804F46054E40A1B5DD940D4
:10096000C160526802F44042920B144B1B1F9A5C08
:10097000B1FBF2F1016110BD0360DAE70360D8E773
:10098000516801F47011536803F48033022404EBBE
:10099000914133B153689B0307D5094B594301601B
:1009A000C7E7074B59430160C3E7034B5943016055
:1009B000BFE700000010024000127A0094030020FC
:1009C00000093D00704700F001B800000CB500229E
:1009D000019200922748016841F4803101604FF490
:1009E000A063016801F4003100910199491C019153
:1009F000009911B901999942F3D10168890302D58F
:100A00000121009100E000920099012930D11A499A
:100A10000A6842F010020A600A6822F003020A60C3
:100A20000A6842F002020A60416841604168416020
:100A3000416841F480614160416821F47C1141606A
:100A4000416841F4E8114160016841F08071016042
:100A500001688901FCD5416821F0030141604168CA
:100A600041F0020141604168C1F381010229FAD1DC
:100A70000CBD000000100240002002404FF0E021B9
:100A8000042804D0086920F0040008617047086950
:100A900040F00400086170477047000010B50F482F
:100AA000016841F00101016041680D4A1140416057
:100AB00001680C4A11400160016821F48021016045
:100AC000416821F4FE0141604FF41F018160FFF78E
:100AD0007AFF05494FF00060086010BD0010024029
:100AE0000000FFF8FFFFF6FE08ED00E070B586B0ED
:100AF00001210420FFF702FF01210846FFF7F0FE65
:100B00000125ADF8145048208DF8170003208DF80A
:100B1000160005A91748FFF7B5FC0023AE071A46D3
:100B20001946304600F091F94FF6FF70ADF8080015
:100B30000024ADF80440ADF80A40ADF8064001A924
:100B4000304600F0BDF901221146304600F0A7F909
:100B50001C208DF810008DF811408DF812508DF882
:100B6000135004A8FFF77EFE0121304600F061F922
:100B700006B070BD000801402DE9F04101218D074C
:100B8000284600F080F900282DD00121284600F0E9
:100B90004DF9164E304600F074F9154C618800EBA3
:100BA0000142A26121690027481E092805D2206A56
:100BB00010442062491C21610CE00A2901D041B196
:100BC00008E0206A0A21B0FBF1F0E06127612762AA
:100BD00000E0E2610021304600F070F90021284673
:100BE00000F06CF96780BDE8F0810000000400406F
:100BF000100000207FB501210220FFF771FE154D86
:100C0000284600F056F94FF6FF70ADF808000024B2
:100C1000ADF80440ADF80A40ADF8064001A92846F9
:100C200000F04EF901221146284600F038F91D2047
:100C30008DF8000001218DF801108DF802408DF82B
:100C400003106846FFF70EFE0121284600F0F1F878
:100C50007FBD00000004004070B501210F4800F086
:100C6000E5F80F4C6088401C80B2608040F2DC5197
:100C7000884212D30121002000F014FB094D02210B
:100C80002846FFF759FC4FF4FA7000F065FA02218C
:100C90002846FFF753FC0120607070BD000400403F
:100CA00010000020000C01402DE9F0413E4E0121D2
:100CB000304600F0E8F8002873D00121304600F0FB
:100CC000B5F83A48DFF8E8C001270078394C00252C
:100CD0000CF54773D0B1E560E1685CF82100491C70
:100CE0005CF82120104440086061A26802F101080C
:100CF000C4F8088043F82200E160C629ECDBDFF885
:100D0000B88098F8000001280CD044E02B48017806
:100D10000029F4D12A4AE16912784CF822100770B0
:100D20006770ECE70021E26953F82100904206D990
:100D3000481C53F82000904201D2881C2070491CA6
:100D4000C629F1DB1868904200D82770D3F8140345
:100D5000904201D3C720207000F0B0FB154B2278E1
:100D60001B1D0121002000F07BFA124B01212433CE
:100D70000020E26900F00AFA124C02212046FFF737
:100D8000DBFB4FF4FA7000F0E7F902212046FFF791
:100D9000D5FB88F800503046BDE8F041002100F056
:100DA00048B8BDE8F0810000000800404100002084
:100DB000A4030020100000203F000020400000207D
:100DC0003E000020000C01401FB501210420FFF768
:100DD00087FD42F20F70ADF8080040F2CF20ADF869
:100DE00004000020ADF80A00ADF806000E4C01A981
:100DF000204600F065F801221146204600F04FF829
:100E00001E218DF8001004218DF8011002218DF8AB
:100E1000021001218DF803106846FFF723FD002121
:100E2000204600F006F81FBD00080040C9430182BB
:100E30007047002904D0018841F00101018070470A
:100E4000018821F001010180704710B50446204659
:100E500000F00BF8208920F0070040F0070020F098
:100E6000700040F07000208110BD30B50489E4B2FC
:100E70004FF6FF7505EA032313430B432343038116
:100E800030BD808C704702460020138A0B40928947
:100E90000A40002B02D0002A00D001207047002A0F
:100EA00003D082890A438281704782898A43828182
:100EB0007047018921F007010181704781847047E3
:100EC00030B502881B4C1C4DA0420DD0A8420BD05F
:100ED000B0F1804F08D0194B984205D0184B98427A
:100EE00002D0184B984203D122F070034A881A436B
:100EF000154B984206D0154B984203D022F440730C
:100F0000CA881A4302808A8882850A880285A0429C
:100F10000AD0A84208D00E4A904205D00D4A90420D
:100F200002D00D4A904201D1097A018601218182C5
:100F300030BD0000002C014000340140000400409E
:100F400000080040000C0040001000400014004069
:100F500000400140004401400048014070B5164C7B
:100F600040F22551204600F039F800280ED02046E6
:100F700000F0CEF8C1B2114A1088030406D444042C
:100F80004FF0000307D50A2901D0138070BD40F44B
:100F90000040108070BD0D290AD0094DC0F30D042A
:100FA0002955401C80B21080C728F3D9138070BD2A
:100FB00040F48040108070BD003801403C000020AB
:100FC000D8090020002904D0818941F40051818191
:100FD0007047818921F400518181704770B50024E8
:100FE00040F66A12C1F3421301F01F05012606FA0A
:100FF00005F2012B0CD0022B0DD0838A1340090A75
:101000008E40008830400BB100B10124204670BDF5
:1010100083891340F3E7038A1340F0E710B540F6E5
:101020006A13C1F3421301F01F040121A140012BF7
:1010300007D0022B07D014303AB102680A4302608D
:1010400010BD0C30F8E71030F6E702688A43026002
:1010500010BD000030B585B004460D46208A4CF620
:10106000FF710840E98801432182A0894EF6F311FF
:101070000840A9882A8911436A8902431143A18142
:10108000A08A4FF6FF410840A9890143A182684622
:10109000FFF742FC1D48844201D1039800E002980A
:1010A000A189090408D500EBC00101EB00102968F3
:1010B0004900B0FBF1F007E000EBC00101EB0010CC
:1010C00029688900B0FBF1F06422B0FBF2F109015C
:1010D0000B096FF018056B4300EB8300A3891D0417
:1010E0004FF0320307D503EBC000B0FBF2F000F085
:1010F0000700084306E003EB0010B0FBF2F000F03D
:101100000F000843208105B030BD000000380140C9
:101110008088C0F308007047FEE7704710B56FF095
:101120000400FFF7ABFC094809490068B0FBF1F087
:101130000849C0B2087000EB4002C2EBC0104FF685
:10114000FF7202EAC000488010BD00007C0300204E
:1011500000127A000C0000200B49498848434FF0E8
:10116000E021486100238B61086940F001000861BB
:101170000869C20701D0C003FAD5086920F0010050
:1011800008618B61704700000C0000202DE9F041E0
:1011900004460F4610461D462946FFF747F9201D15
:1011A000C0B22E4A394600F0FDF9E8792B4E00EB2B
:1011B000C000B43E06EB4002601DC0B2394600F0EC
:1011C000F1F9A879394600EBC00006EB4002A01DFA
:1011D000C0B200F0E7F96879394600EBC00006EBD1
:1011E0004002E01DC0B200F0DDF92879394600EB7D
:1011F000C00006EB400204F10800C0B200F0D2F9D2
:10120000E878394600EBC00006EB400204F1090023
:10121000C0B200F0C7F9A878394600EBC00006EB71
:10122000400204F10A00C0B200F0BCF96878394607
:1012300000EBC00006EB400204F10B00C0B200F06E
:10124000B1F928780C3400EBC00006EB4002E0B2A4
:101250003946BDE8F04100F0A5B90000690300205F
:101260002DE9F04104460E4610461D462946FFF77B
:10127000DDF868780A4F00EBC00007EB4002601C05
:10128000C0B2314600F08EF92878A41C00EBC000F3
:1012900007EB4002E0B23146BDE8F04100F082B910
:1012A000B502002070B504460D46201DC0B2064AA6
:1012B000294600F028F90B34E0B22946BDE8704019
:1012C000014A223200F01FB971020020FEB501214F
:1012D0000846FFF713FB01210220FFF7BFF80225A4
:1012E000019500278DF808700C208DF80900012465
:1012F0008DF80A4001A8FFF75FF80D210220FFF7E3
:10130000ADF86003019001A8FFF756F80221002014
:10131000FFF7A4F80420019001A8FFF74DF807207B
:101320008DF8000003268DF801608DF802508DF8CD
:1013300003406846FFF796FA08208DF800008DF804
:1013400001608DF802708DF803406846FFF78AFA55
:1013500028208DF800008DF801508DF802408DF89E
:1013600003406846FFF77EFAFEBD00004FF4407070
:10137000FFF7AAFAFFF70AFAFEF77EFFFFF756FA21
:10138000FFF7CCFE4FF4E13000F05CF9FFF79EFF71
:1013900000F042F81A4800F0A1F8FFF7A7FBFFF7AA
:1013A00029FCFFF711FD174F174C0026387801284C
:1013B00015D100F083F8154D134B01212A785B1CE1
:1013C000521C0020FFF74CFF114829780E4B50F8B3
:1013D0002120DB1C01210020FFF7D8FE3E70207881
:1013E0000128E3D10B4D02212846FFF7A5F8C820BC
:1013F000FFF7B2FE02212846FFF7A0F82670D5E7D6
:101400004C00002011000020000000203E000020C1
:10141000A4030020000C014010B5AE2000F054F8E9
:10142000D52000F051F8802000F04EF8A82000F000
:101430004BF81F2000F048F8D32000F045F80020BA
:1014400000F042F8402000F03FF88D2000F03CF81A
:10145000142000F039F8202000F036F8002000F0C9
:1014600033F8A12000F030F8C82000F02DF8DA2081
:1014700000F02AF8022000F027F8812000F024F87C
:101480008F2000F021F8D92000F01EF8F12000F0A4
:101490001BF8DB2000F018F8402000F015F8A4201D
:1014A00000F012F8A62000F00FF82E2000F00CF843
:1014B000BDE81040AF2000F007B80000014800F080
:1014C0000DB800004C0000200349487002224FF480
:1014D00080537820FFF7EAB84400002010B5044696
:1014E000B020FFF7F1FF0020FFF7EEFF1020FFF71D
:1014F000EBFF2146BDE810404FF4805340F201223B
:101500007820FFF7D3B82DE9F0411546C006102228
:10151000000E170242EA101405F1110600F00F0840
:1015200000291FD0B220FFF7CFFF4046FFF7CCFFC6
:101530002046FFF7C9FF3B46112229467820FFF7D6
:10154000B5F8B320FFF7C0FF4046FFF7BDFF2046C8
:10155000FFF7BAFF3B463146BDE8F0411122782043
:10156000FFF7A4B8B020FFF7AFFF4046FFF7ACFF8E
:101570002046FFF7A9FF3B46112229467820FFF7B6
:1015800095F8B120FFF7A0FF4046FFF79DFF2046EA
:10159000FFF79AFF3B463146BDE8F0411122782023
:1015A000FFF784B82DE9F0411546C0061022000E61
:1015B000170242EA101405F1090600F00F0800298D
:1015C0001FD0B220FFF780FF4046FFF77DFF204687
:1015D000FFF77AFF3B46092229467820FFF766F895
:1015E000B320FFF771FF4046FFF76EFF2046FFF77D
:1015F0006BFF3B463146BDE8F04109227820FFF7FA
:1016000055B8B020FFF760FF4046FFF75DFF20466A
:10161000FFF75AFF3B46092229467820FFF746F894
:10162000B120FFF751FF4046FFF74EFF2046FFF77E
:101630004BFF3B463146BDE8F04109227820FFF7D9
:1016400035B8000070B586B00546012144F20400AB
:10165000FFF754F94FF40070ADF8140003248DF82F
:10166000164018218DF817101C4E05A93046FEF7BC
:1016700009FF3115ADF8141004218DF8171005A9D4
:101680003046FEF7FFFE25208DF800008DF8014062
:101690008DF8024001208DF803006846FFF7E2F85C
:1016A00001950020ADF80800ADF80A00ADF80C0077
:1016B000ADF810000C20ADF80E00094C01A9204631
:1016C000FFF7C8FC012240F225512046FFF7A6FC97
:1016D00001212046FFF776FC06B070BD00080140EE
:1016E000003801400417000800000020A403000097
:1016F0002801000800180008A40300205C0D000069
:1017000084010008014C02FF4001FF215B40010100
:101710005B4008013C4001FD0119123A0B0116081B
:101720004010226C100980FC04F404FE04F81AFE38
:1017300035100B0404FE014027100F10671C478072
:101740007F114E202020BEAA0115BF22302012405A
:101750001C8080AF0D1AFF041CAF808022111FE097
:1017600010080810E0091F0F102020100F09112C7D
:101770001010F883212D20203F20352A70811AF087
:10178000092F3028242221300919111B8870092FB4
:1017900018202121221C2D1C8040303712401009B6
:1017A000060524243F2424401FF88888880808124E
:1017B0001A19873B110E6C2C888890241B0F11136B
:1017C0002A1F3F19472B68183F113B3E01751A70BD
:1017D00034395A5B1C225A1AF06C39A23E0112228B
:1017E0002211A261190963363684A24A04680D01E8
:1017F0000203040607080902040608106914000021
:04000005080000ED02
:00000001FF
